:020000040800F2
:1000000000500020391500082D1400083514000890
:100010003D140008451400084D14000800000000BD
:10002000000000000000000000000000551400085F
:1000300061140008000000006D1400087914000825
:100040008115000881150008811500088115000838
:100050008115000881150008811500088115000828
:100060008115000881150008811500088115000818
:100070008115000881150008811500088115000808
:1000800081150008811500088115000881150008F8
:1000900081150008811500088115000881150008E8
:1000A00081150008811500088115000881150008D8
:1000B00081150008811500088115000881150008C8
:1000C00081150008811500088115000881150008B8
:1000D000811500088514000899140008AD14000863
:1000E0008115000881150008811500080000000036
:1000F0000000000000000000000000000000000000
:0C01000000000000000000005FF808F1A3
:10010C0010B5054C237833B9044B13B10448AFF345
:10011C0000800123237010BD5C0000200000000053
:10012C00283B000808B5034B1BB103490348AFF348
:10013C00008008BD0000000060000020283B000883
:10014C00034613F8012B002AFBD1181A013870470B
:10015C0080B598B000AF7860396000F023FB4D4952
:10016C004D4800F0A1FC4D494D4800F09DFC00238A
:10017C00FB650AE047494B4800F096FC4FF47A7057
:10018C0001F05CFAFB6D0133FB65FB6D042BF1DDBB
:10019C004249454800F088FC00BF4049434800F004
:1001AC0015FD0346002BF8D03A49414800F07CFC81
:1001BC003A49404800F078FC00BF38493E4800F00E
:1001CC0005FD0346002BF8D032493C4800F06CFC8E
:1001DC0030493B4800F068FC07F108003B687A683E
:1001EC00384902F0EBFF07F108032C49184600F0E0
:1001FC005BFC00BF2949344800F0E8FC0346002BA7
:10020C00F8D007F108037A683049184602F0D6FF97
:10021C0007F108031F49184600F046FC1F492C48FB
:10022C0000F042FC00BF1D492A4800F0CFFC0346F9
:10023C00002BF8D000BF194A2749284800F04CFC85
:10024C000346002BF7D000BF1449254800F0BEFC34
:10025C000346002BF8D02048FFF772FF0346BB651E
:10026C00BB6D013B1C4A0021D15407F108031A4A0B
:10027C001C49184602F0A2FF07F10803054918466D
:10028C0000F012FC0349184800F00EFC00BF603768
:10029C00BD4680BD04020020403B0008BC0100208C
:1002AC004C3B0008583B00085C3B0008643B0008D2
:1002BC00703B00087C3B00088C3B0008A43B00080A
:1002CC00B43B0008D83B0008F03B0008043C000895
:1002DC00183C0008243C000878000020343C00083E
:1002EC00383C0008403C0008503C000880B5ADF597
:1002FC006A7D02AF07F56873A3F56573186007F59F
:10030C006873A3F56673196007F56873A3F56773D3
:10031C001A608149814800F0C7FB07F56873A3F5A3
:10032C00647318464FF400731A46002102F068FFFC
:10033C007B4800F09BFA07F56873A3F5667307F525
:10034C006872A2F5657207F544701B6812687549EE
:10035C0002F034FF07F544737149184600F0A4FB12
:10036C0041F288326E49704800F0AEFC0346002B17
:10037C0005D169496D4800F097FB0023C7E007F5EC
:10038C006873A3F5657307F56872A2F5677207F5D4
:10039C00047007F56871A1F56671096800911B6816
:1003AC001268634902F00AFF07F504731846FFF759
:1003BC00C7FE0346C7F8943307F54473D7F8942364
:1003CC005C49184602F0FAFE07F544735449184686
:1003DC0000F06AFB41F288325149574800F074FC36
:1003EC000346002B05D14C49544800F05DFB00231B
:1003FC008DE007F504734A49184600F055FB41F2AD
:10040C00883247494E4800F05FFC0346002B05D16B
:10041C0041494C4800F048FB002378E041F2883217
:10042C003F49494800F050FC0346002B5DD009E0E1
:10043C003B4800F081FA034687F8933397F89333DF
:10044C003A2B06D0364800F0F5FA0346002BEFD1D4
:10045C0000E000BF0023C7F89C3301F0E5F8C7F8B3
:10046C00980323E02E4800F0E5FA0346002B12D047
:10047C002B4800F061FA0146D7F89C335A1CC7F898
:10048C009C23C9B207F56872A2F56472D15401F0CD
:10049C00CBF8C7F8980301F0C7F80246D7F89833A1
:1004AC00D31A642B08D8012001F0C8F8D7F89C3374
:1004BC00B3F5FF7FD6DD00E000BF07F56873A3F549
:1004CC006472D7F89C33134400221A7012491F48E7
:1004DC0000F0EAFA07F110030F49184600F0E4FAAD
:1004EC000D491B4800F0E0FA03E00B49194800F0F5
:1004FC00DBFA642001F0A2F80949174800F0D4FA9D
:10050C0041F288320649084800F0DEFB0123184608
:10051C0007F56877BD4680BD04020020703C0008DA
:10052C00BC0100207C3C0008383C0008983C0008CA
:10053C00B43C0008E83C0008F83C0008FC3C00080F
:10054C00183D0008203D0008343D00083C3D0008E3
:10055C004C3D0008503D0008783D000880B5ADF5D5
:10056C00687D00AF07F56873A3F56573186007F530
:10057C006873A3F56673196007F56873A3F5677361
:10058C001A607649764800F08FFA07F56873A3F580
:10059C00637318464FF400731A46002102F030FEC4
:1005AC00704800F063F907F56873A3F5667307F5F7
:1005BC006872A2F5657207F545701B6812686A4986
:1005CC0002F0FCFD07F545736649184600F06CFA1D
:1005DC0041F288326349654800F076FB0346002BF4
:1005EC0005D15E49624800F05FFA0023B0E007F5E0
:1005FC006873A3F5657307F56872A2F5677207F562
:10060C0005701B6812685B4902F0D8FD07F505738D
:10061C001846FFF795FD0346C7F8983307F5457361
:10062C00D7F898235449184602F0C8FD07F54573CE
:10063C004C49184600F038FA41F2883249494F4883
:10064C0000F042FB0346002B05D144494C4800F016
:10065C002BFA00237CE007F505734249184600F09D
:10066C0023FA41F288323F49464800F02DFB0346FD
:10067C00002B05D13949444800F016FA002367E0F5
:10068C0041F288323749414800F01EFB0346002BEB
:10069C004BD009E0334800F04FF9034687F8973305
:1006AC0097F897333A2B06D02E4800F0C3F903463F
:1006BC00002BEFD100E000BF0023C7F89C3311E002
:1006CC00284800F039F90146D7F89C335A1CC7F872
:1006DC009C23C9B207F56872A2F56372D15401204C
:1006EC0000F0ACFFD7F89C33B3F5FF7F05DC1D4859
:1006FC0000F0A0F90346002BE2D107F56873A3F5CF
:10070C006372D7F89C33134400221A7013492048A3
:10071C0000F0CAF907F114031049184600F0C4F9A7
:10072C000E491C4800F0C0F903E00C491A4800F0CF
:10073C00BBF90C49194800F0B7F94FF4FA620949B2
:10074C00174800F0C1FA4FF4FA7000F077FF01235C
:10075C00184607F56877BD4680BD00BF040200202F
:10076C00883D0008BC0100207C3C0008383C000897
:10077C00943D0008B03D0008E83C0008F83C000837
:10078C00E43D0008183D0008003E0008343D000818
:10079C00143E00084C3D0008243E0008783D00083B
:1007AC004C3E000880B400AF174B184A1A60184B27
:1007BC00184A1A60184B194A1A60194B194A1A60D0
:1007CC00194B1B685A69184B1B6842F001025A619D
:1007DC00164B1B685A69154B1B6842F001025A6193
:1007EC00114B1B68DA68104B1B6842F02002DA6070
:1007FC000E4B1B68DA680D4B1B6842F02002DA6066
:10080C0000BFBD4680BC7047AC0100208C000020AE
:10081C00B0010020D4000020B40100201C010020F5
:10082C00B801002064010020BC010020040200205B
:10083C0080B485B000AF03463960FB713B681B6C1C
:10084C00013303F03F03FB603B685A6CFB689A4230
:10085C0007D03B681B6C3A68F979D154FA683B684D
:10086C001A6400BF1437BD4680BC704780B483B097
:10087C0000AF78607B680C4A934205D10B4B1A6829
:10088C000A4B1B68526C1A647B68094A934205D167
:10089C00084B1A68074B1B68526C1A6400BF0C3764
:1008AC00BD4680BC704700BFBC010020AC010020DD
:1008BC0004020020B401002080B483B000AF786043
:1008CC007B68194A934211D1184B1B681A6C174B51
:1008DC001B685B6C9A4202D14FF0FF331EE0134B46
:1008EC001A68124B1B685B6CD35C17E07B68104A70
:1008FC00934211D10F4B1B681A6C0E4B1B685B6C2F
:10090C009A4202D14FF0FF3308E00A4B1A68094BA8
:10091C001B685B6CD35C01E04FF0FF3318460C375F
:10092C00BD4680BC704700BFBC010020AC0100205C
:10093C0004020020B401002080B485B000AF7860C0
:10094C007B68244A93421CD1234B1B681A6C224BA4
:10095C001B685B6C9A4202D14FF0FF3334E01E4BA4
:10096C001A681D4B1B685B6CD35CBB731A4B1B6802
:10097C005B6C5A1C184B1B6802F03F025A64BB7B21
:10098C0022E07B68154A93421CD1154B1B681A6CEC
:10099C00134B1B685B6C9A4202D14FF0FF3313E090
:1009AC000F4B1A680E4B1B685B6CD35CFB730C4BC8
:1009BC001B685B6C5A1C0A4B1B6802F03F025A64A2
:1009CC00FB7B01E04FF0FF3318461437BD4680BC6B
:1009DC00704700BFBC010020AC01002004020020C5
:1009EC00B401002080B582B000AF786039607B68BC
:1009FC00002B16DB3B680D4A934207D1391D4FF093
:100A0C00FF330122094801F013FE0AE03B68084A53
:100A1C00934206D1391D4FF0FF330122044801F0F7
:100A2C0007FE00BF0837BD4680BD00BFBC010020DB
:100A3C000402002080B483B000AF78607B68164A53
:100A4C0093420ED1154B1B681B6C9AB2134B1B684F
:100A5C005B6C9BB2D31A9BB240339BB203F03F0347
:100A6C0014E07B680E4A93420ED10E4B1B681B6C34
:100A7C009AB20C4B1B685B6C9BB2D31A9BB2403383
:100A8C009BB203F03F0301E04FF0FF3318460C37E5
:100A9C00BD4680BC704700BFBC010020AC010020EB
:100AAC0004020020B401002080B582B000AF786051
:100ABC00396007E07B685A1C7A601B7839681846E5
:100ACC00FFF790FF7B681B78002BF3D100BF00BFB2
:100ADC000837BD4680BD000080B588B000AFF86017
:100AEC00B9607A600023FB61F868FFF729FB0346C5
:100AFC007B610023BB6100BF7868FFF79BFF034657
:100B0C00002BF9D01CE0304B19682F4B1B685A6C2A
:100B1C00BB69B86803448A5C1A702B4B1B685B6C0E
:100B2C005A1C294B1B6802F03F025A64BB69013303
:100B3C00BB6100BF7868FFF77DFF0346002BF9D03F
:100B4C007868FFF7B9FE0146FB69FA6813441B7815
:100B5C009942D8D11BE0FB690133FB617868FFF740
:100B6C00EBFE0146BB695A1CBA611A46BB681344BA
:100B7C00CAB21A70FA697B699A4201D101231FE04B
:100B8C0000BF7868FFF756FF0346002BF9D0786852
:100B9C00FFF792FE0146FB69FA6813441B789942F1
:100BAC00D9D0FA697B699A4202D00023FB61A2E793
:100BBC00FA697B699A4201D1012301E04FF0FF33BE
:100BCC0018462037BD4680BDAC01002080B584B0EE
:100BDC0000AF786039600023FB607868FFF7B0FAEB
:100BEC000346BB6000BF3868FFF724FF0346002BA9
:100BFC00F9D03B68304A934214D108E02F4B1B6864
:100C0C005B6C5A1C2D4B1B6802F03F025A6438680F
:100C1C00FFF752FE0146FB687A6813441B78994231
:100C2C00ECD12BE03B68264A934227D108E0254BB8
:100C3C001B685B6C5A1C234B1B6802F03F025A6406
:100C4C003868FFF739FE0146FB687A6813441B7855
:100C5C009942ECD112E0FB680133FB603868FFF776
:100C6C006BFEFA68BB689A4201D101231FE000BFFA
:100C7C003868FFF7DFFE0346002BF9D03868FFF722
:100C8C001BFE0146FB687A6813441B789942E2D03C
:100C9C00FA68BB689A4202D00023FB60A2E7FA68AC
:100CAC00BB689A4201D1012301E04FF0FF33184693
:100CBC001037BD4680BD00BFBC010020AC01002038
:100CCC0004020020B401002080B588B000AFF860A9
:100CDC00B9607A6000F0A8FCB8610023FB61F86889
:100CEC00FFF72EFA03467B611FE0B868FFF7A2FE00
:100CFC000346002B16D0B868FFF71EFE0346FB74A4
:100D0C00FB69FA6813441B78FA7C9A4208D1FB6998
:100D1C000133FB61FA697B699A4203D101230DE02F
:100D2C000023FB61012000F089FC00F07DFC0246F1
:100D3C00BB69D31A7A689A42D7D800231846203751
:100D4C00BD4680BD80B586B000AF78607B681B68FF
:100D5C001B687B617B681B68DB683B617B6903F00C
:100D6C002003002B23D03B6903F02003002B1ED063
:100D7C007B681B681B687B681B685B68FB737B6804
:100D8C003A4A934207D13A4B1A68FB7B11461846F4
:100D9C00FFF74EFD63E07B68364A93425FD1364BDA
:100DAC001A68FB7B11461846FFF742FD57E07B693A
:100DBC0003F08003002B55D03B6903F08003002B1C
:100DCC0050D07B68294A934222D12C4B1A6C2B4B66
:100DDC005B6C9A4208D17B681B68DA687B681B687D
:100DEC0022F08002DA603CE0244B5B6C234AD35C3B
:100DFC007B73224B5B6C013303F03F031F4A53643C
:100E0C007B681B681B687B681B687A7B5A6028E0D0
:100E1C007B68184A934224D1194B1A6C184B5B6CA3
:100E2C009A4208D17B681B68DA687B681B6822F0E1
:100E3C008002DA6015E0124B5B6C114AD35CBB7319
:100E4C000F4B5B6C013303F03F030D4A53647B681B
:100E5C001B681B687B681B68BA7B5A6001E000BF8B
:100E6C0000E000BF1837BD4680BD00BFBC010020AC
:100E7C00AC01002004020020B4010020D4000020AA
:100E8C0064010020B0B5CCB000AF464B07F58074C0
:100E9C001D460FCD0FC40FCD0FC495E80F0007C42E
:100EAC00238000F069FB00F08FF800F051F900F09E
:100EBC00D1F800F0F9F800F021F94FF400513A485C
:100ECC0000F03CFFC82000F0B9FB4FF4005136484D
:100EDC0000F034FFC82000F0B1FB4FF40051324851
:100EEC0000F02CFFC82000F0A9FB4FF400512E4855
:100EFC0000F024FFC82000F0A1FB4FF400512A4859
:100F0C0000F01CFFC82000F099FB4FF4005126485C
:100F1C0000F014FFC82000F091FB4FF40051224860
:100F2C0000F00CFFC82000F089FB4FF400511E4864
:100F3C0000F004FFC82000F081FB4FF0FF330722C4
:100F4C001A491B4801F074FB1A491B48FFF700F9BA
:100F5C004FF4FA6000F072FB184A4FF4FA5118483B
:100F6C00FFF7C4F94FF47A7000F068FB3B46154963
:100F7C00184602F023F93B461A464FF4FA51104832
:100F8C00FFF7ECFA4FF47A7000F058FB4FF4005175
:100F9C00054800F0D3FE4FF47A7000F04FFB00BF11
:100FAC00DAE700BFDC3E000800100140503E0008AC
:100FBC0004020020583E0008683E0008743E0008F9
:100FCC008C3E0008983E000880B590B000AF07F149
:100FDC00180328220021184602F012F93B1D0022AA
:100FEC001A605A609A60DA601A610123BB614FF48F
:100FFC008033FB6100233B620123BB6202237B63D2
:10100C004FF48033BB634FF4E013FB6307F1180319
:10101C00184600F0ADFE0346002B01D000F0F0F8AE
:10102C000F237B600223BB600023FB604FF48063C3
:10103C003B6100237B613B1D0221184601F01AF92C
:10104C000346002B01D000F0DBF800BF4037BD4653
:10105C0080BD000080B500AF114B124A1A60104BD6
:10106C004FF4E1325A600E4B00229A600C4B002276
:10107C00DA600B4B00221A61094B0C225A61084BA7
:10108C0000229A61064B0022DA61054801F080FAD1
:10109C000346002B01D000F0B3F800BF80BD00BFA9
:1010AC00BC0100200038014080B500AF114B124A42
:1010BC001A60104B4FF4E1325A600E4B00229A60CA
:1010CC000C4B0022DA600B4B00221A61094B0C22EC
:1010DC005A61084B00229A61064B0022DA610548DE
:1010EC0001F056FA0346002B01D000F089F800BF3E
:1010FC0080BD00BF040200200044004080B500AF5A
:10110C00114B124A1A60104B4FF416525A600E4B88
:10111C0000229A600C4B0022DA600B4B00221A6101
:10112C00094B0C225A61084B00229A61064B002293
:10113C00DA61054801F02CFA0346002B01D000F0CF
:10114C005FF800BF80BD00BF4C020020004800408B
:10115C0080B588B000AF07F1100300221A605A6006
:10116C009A60DA60244B9B69234A43F01003936125
:10117C00214B9B6903F01003FB60FB681E4B9B69C2
:10118C001D4A43F0200393611B4B9B6903F0200322
:10119C00BB60BB68184B9B69174A43F0040393610F
:1011AC00154B9B6903F004037B607B68124B9B69B6
:1011BC00114A43F0080393610F4B9B6903F008033A
:1011CC003B603B6800224FF400510C4800F09EFD40
:1011DC004FF400533B6101237B610023BB6102236D
:1011EC00FB6107F110031946044800F00BFC00BF2B
:1011FC002037BD4680BD00BF0010024000100140EA
:10120C0080B400AF72B600BF00BFFDE780B485B0FC
:10121C0000AF154B9B69144A43F001039361124BC9
:10122C009B6903F00103BB60BB680F4BDB690E4A83
:10123C0043F08053D3610C4BDB6903F080537B602C
:10124C007B680A4B5B68FB60FB6823F0E063FB6028
:10125C00FB6843F00073FB60044AFB68536000BFFB
:10126C001437BD4680BC704700100240000001409E
:10127C0080B58CB000AF786007F1200300221A60B3
:10128C005A609A60DA607B681B685F4A93423AD175
:10129C005E4B9B695D4A43F4804393615B4B9B6956
:1012AC0003F48043FB61FB69584B9B69574A43F03D
:1012BC0004039361554B9B6903F00403BB61BB6949
:1012CC004FF400733B6202237B620323FB6207F142
:1012DC00200319464E4800F095FB4FF480633B62A7
:1012EC0000237B620023BB6207F1200319464848A8
:1012FC0000F088FB00220021252000F09AFA25201E
:10130C0000F0B3FA7CE07B681B68424A934238D108
:10131C003E4BDB693D4A43F40033D3613B4BDB6905
:10132C0003F400337B617B69384B9B69374A43F08C
:10133C0004039361354B9B6903F004033B613B69E8
:10134C0004233B6202237B620323FB6207F120032D
:10135C0019462F4800F056FB08233B6200237B62A2
:10136C000023BB6207F120031946294800F04AFB11
:10137C0000220021262000F05CFA262000F075FAED
:10138C003EE07B681B68244A934239D11F4BDB69D2
:10139C001E4A43F48023D3611C4BDB6903F4802386
:1013AC00FB60FB68194B9B69184A43F00803936177
:1013BC00164B9B6903F00803BB60BB684FF480635A
:1013CC003B6202237B620323FB6207F12003194675
:1013DC00124800F017FB4FF400633B6200237B6262
:1013EC000023BB6207F1200319460C4800F00AFBEE
:1013FC0000220021272000F01CFA272000F035FAEB
:10140C0000BF3037BD4680BD00380140001002409F
:10141C00000801400044004000480040000C01401E
:10142C0080B400AF00BFFDE780B400AF00BFFDE7A4
:10143C0080B400AF00BFFDE780B400AF00BFFDE794
:10144C0080B400AF00BFFDE780B400AF00BFBD4665
:10145C0080BC704780B400AF00BFBD4680BC7047F5
:10146C0080B400AF00BFBD4680BC704780B500AFF4
:10147C0000F0C8F800BF80BD80B500AF0248FFF790
:10148C0061FC00BF80BD00BFBC01002080B500AF77
:10149C000248FFF757FC00BF80BD00BF04020020CC
:1014AC0080B500AF024801F04FF900BF80BD00BF0E
:1014BC004C02002080B586B000AF7860144A154B02
:1014CC00D31A7B617B693B61134B1B68002B02D1E8
:1014DC00114B124A1A60104B1A687B6813443A6914
:1014EC009A4207D201F094FE03460C221A604FF088
:1014FC00FF3309E0084B1B68FB60074B1A687B68DD
:10150C001344054A1360FB6818461837BD4680BD66
:10151C00005000200004000094020020E80300208A
:10152C0080B400AF00BFBD4680BC7047FFF7F8FF2A
:10153C000B480C490C4A002302E0D458C450043325
:10154C00C4188C42F9D3094A094C002301E01360FA
:10155C000432A242FBD301F061FEFFF793FC70470B
:10156C00000000205C0000207C3F00085C00002094
:10157C00E4030020FEE7000080B500AF084B1B68B9
:10158C00074A43F010031360032000F047F90F20C3
:10159C0000F008F8FFF73AFE0023184680BD00BFA4
:1015AC000020024080B582B000AF7860124B1A6800
:1015BC00124B1B7819464FF47A73B3FBF1F3B2FB61
:1015CC00F3F3184600F05FF90346002B01D001231A
:1015DC000EE07B680F2B0AD8002279684FF0FF30A1
:1015EC0000F027F9064A7B681360002300E0012312
:1015FC0018460837BD4680BD0000002008000020BA
:10160C000400002080B400AF054B1B781A46054B34
:10161C001B681344034A136000BFBD4680BC70476F
:10162C00080000209802002080B400AF024B1B6819
:10163C001846BD4680BC70479802002080B584B027
:10164C0000AF7860FFF7F0FFB8607B68FB60FB6869
:10165C00B3F1FF3F05D00A4B1B781A46FB681344C5
:10166C00FB6000BFFFF7E0FF0246BB68D31AFA68C5
:10167C009A42F7D800BF00BF1037BD4680BD00BFEF
:10168C000800002080B485B000AF78607B6803F060
:10169C000703FB600C4BDB68BB60BA684FF6FF03BB
:1016AC001340BB60FB681A02BB68134343F0BF6373
:1016BC0043F40033BB60044ABB68D36000BF1437EB
:1016CC00BD4680BC704700BF00ED00E080B400AFA9
:1016DC00044BDB681B0A03F007031846BD4680BCAD
:1016EC00704700BF00ED00E080B483B000AF03464C
:1016FC00FB7197F90730002B0BDBFB7903F01F0212
:10170C00064997F907305B09012000FA02F241F80B
:10171C00232000BF0C37BD4680BC704700E100E0C1
:10172C0080B483B000AF03463960FB7197F9073082
:10173C00002B0ADB3B68DAB20C4997F9073012012F
:10174C00D2B20B4483F800230AE03B68DAB20849B2
:10175C00FB7903F00F03043B1201D2B20B441A764F
:10176C0000BF0C37BD4680BC704700BF00E100E0F5
:10177C0000ED00E080B489B000AFF860B9607A6029
:10178C00FB6803F00703FB61FB69C3F10703042B40
:10179C0028BF0423BB61FB690433062B02D9FB6908
:1017AC00033B00E000237B614FF0FF32BB6902FA80
:1017BC0003F3DA43BB681A407B699A404FF0FF3160
:1017CC007B6901FA03F3D9437B680B40134318463A
:1017DC002437BD4680BC704780B582B000AF7860BE
:1017EC007B68013BB3F1807F01D301230FE00A4AF0
:1017FC007B68013B53600F214FF0FF30FFF790FFE8
:10180C00054B00229A60044B07221A6000231846ED
:10181C000837BD4680BD00BF10E000E080B582B047
:10182C0000AF78607868FFF72DFF00BF0837BD4622
:10183C0080BD80B586B000AF0346B9607A60FB739B
:10184C0000237B61FFF742FF78617A68B968786999
:10185C00FFF790FF024697F90F3011461846FFF735
:10186C005FFF00BF1837BD4680BD80B582B000AFAA
:10187C000346FB7197F907301846FFF735FF00BF99
:10188C000837BD4680BD80B582B000AF78607868FF
:10189C00FFF7A2FF034618460837BD4680BD80B44B
:1018AC0085B000AF78600023FB737B6893F8213020
:1018BC00DBB2022B08D07B6804229A637B6800227F
:1018CC0083F82020012320E07B681B681A687B6862
:1018DC001B6822F00E021A607B681B681A687B6812
:1018EC001B6822F001021A607B681A6C7B68DB6B48
:1018FC00012101FA02F25A607B68012283F821204F
:10190C007B68002283F82020FB7B18461437BD46E9
:10191C0080BC704780B584B000AF78600023FB7347
:10192C007B6893F82130DBB2022B05D07B68042254
:10193C009A630123FB7351E07B681B681A687B6810
:10194C001B6822F00E021A607B681B681A687B68A1
:10195C001B6822F001021A607B681B68224A9342C2
:10196C0029D07B681B68214A934222D07B681B6874
:10197C001F4A93421AD07B681B681E4A934212D0AE
:10198C007B681B681C4A93420AD07B681B681B4A05
:10199C00934202D14FF480130EE04FF080730BE0B2
:1019AC004FF4803308E04FF4805305E04FF480731C
:1019BC0002E0102300E00123114A53607B680122EE
:1019CC0083F821207B68002283F820207B685B6BE6
:1019DC00002B03D07B685B6B78689847FB7B1846C1
:1019EC001037BD4680BD00BF080002401C000240FD
:1019FC003000024044000240580002406C0002409B
:101A0C000000024080B48BB000AF786039600023D6
:101A1C007B6200233B6269E101227B6A02FA03F3D9
:101A2C00FB613B681B68FA691340BB61BA69FB69CF
:101A3C009A4240F058813B685B689A4A93425ED068
:101A4C00984A934275D8984A934258D0964A9342F2
:101A5C006FD8964A934252D0944A934269D8944A8A
:101A6C0093424CD0924A934263D8924A934246D0C6
:101A7C00904A93425DD8122B2AD8122B59D801A226
:101A8C0052F823F00B1B0008E51A0008F71A00089F
:101A9C00391B00083F1B00083F1B00083F1B0008B8
:101AAC003F1B00083F1B00083F1B00083F1B0008A2
:101ABC003F1B00083F1B00083F1B00083F1B000892
:101ACC003F1B00083F1B0008ED1A0008011B000813
:101ADC00794A934213D02CE03B68DB683B6229E0E7
:101AEC003B68DB6804333B6224E03B68DB6808330B
:101AFC003B621FE03B68DB680C333B621AE03B68DF
:101B0C009B68002B02D104233B6213E03B689B686B
:101B1C00012B05D108233B627B68FA691A6109E045
:101B2C0008233B627B68FA695A6103E000233B623D
:101B3C0000E000BFBB69FF2B01D87B6801E07B682C
:101B4C0004337B61BB69FF2B02D87B6A9B0002E0EC
:101B5C007B6A083B9B003B617B691A680F213B69E0
:101B6C0001FA03F3DB431A40396A3B6901FA03F3C8
:101B7C001A437B691A603B685B6803F08053002B47
:101B8C0000F0B1804D4B9B694C4A43F001039361CB
:101B9C004A4B9B6903F00103BB60BB68484A7B6AF4
:101BAC009B08023352F82330FB607B6A03F003037B
:101BBC009B000F2202FA03F3DB43FA681340FB602D
:101BCC007B68404A934213D07B683F4A93420DD0C6
:101BDC007B683E4A934207D07B683D4A934201D1D1
:101BEC00032306E0042304E0022302E0012300E0C7
:101BFC0000237A6A02F0030292009340FA681343BE
:101C0C00FB602F497B6A9B080233FA6841F823205A
:101C1C003B685B6803F48013002B06D02D4B9A684D
:101C2C002C49BB6913438B6006E02A4B9A68BB694D
:101C3C00DB43284913408B603B685B6803F400135B
:101C4C00002B06D0234BDA682249BB691343CB60C7
:101C5C0006E0204BDA68BB69DB431E491340CB60BE
:101C6C003B685B6803F40033002B06D0194B5A68B1
:101C7C001849BB6913434B6006E0164B5A68BB69A5
:101C8C00DB43144913404B603B685B6803F48033BF
:101C9C00002B21D00F4B1A680E49BB6913430B6004
:101CAC0021E000BF000032100000311000002210B3
:101CBC000000211000001210000011100010024052
:101CCC000000014000080140000C014000100140E0
:101CDC0000140140000401400B4B1A68BB69DB4344
:101CEC00094913400B607B6A01337B623B681A68BD
:101CFC007B6A22FA03F3002B7FF48EAE00BF00BF89
:101D0C002C37BD4680BC70470004014080B483B0C2
:101D1C0000AF78600B467B8013467B707B78002B82
:101D2C0003D07A887B681A6103E07B881A047B688D
:101D3C001A6100BF0C37BD4680BC704780B485B0BB
:101D4C0000AF78600B467B807B68DB68FB607A8831
:101D5C00FB6813401A04FB68D9437B880B401A4379
:101D6C007B681A6100BF1437BD4680BC7047000009
:101D7C0080B586B000AF78607B68002B01D1012361
:101D8C0072E27B681B6803F00103002B00F0878074
:101D9C00924B5B6803F00C03042B0CD08F4B5B68ED
:101DAC0003F00C03082B12D18C4B5B6803F48033CB
:101DBC00B3F5803F0BD1894B1B6803F40033002B28
:101DCC006CD07B685B68002B68D101234CE27B688C
:101DDC005B68B3F5803F06D1804B1B687F4A43F4A8
:101DEC00803313602EE07B685B68002B0CD17B4B3F
:101DFC001B687A4A23F480331360784B1B68774A4C
:101E0C0023F4802313601DE07B685B68B3F5A02F7F
:101E1C000CD1724B1B68714A43F4802313606F4BD7
:101E2C001B686E4A43F4803313600BE06B4B1B68EA
:101E3C006A4A23F480331360684B1B68674A23F4A7
:101E4C00802313607B685B68002B13D0FFF7ECFBDF
:101E5C00386108E0FFF7E8FB02463B69D31A642BB4
:101E6C0001D9032300E25D4B1B6803F40033002B04
:101E7C00F0D014E0FFF7D8FB386108E0FFF7D4FB93
:101E8C0002463B69D31A642B01D90323ECE1534B73
:101E9C001B6803F40033002BF0D100E000BF7B681B
:101EAC001B6803F00203002B63D04C4B5B6803F000
:101EBC000C03002B0BD0494B5B6803F00C03082B75
:101ECC001CD1464B5B6803F48033002B16D1434B7B
:101EDC001B6803F00203002B05D07B681B69012BE8
:101EEC0001D00123C0E13D4B1B6823F0F8027B6855
:101EFC005B69DB00394913430B603AE07B681B6973
:101F0C00002B20D0364B01221A60FFF78DFB386175
:101F1C0008E0FFF789FB02463B69D31A022B01D973
:101F2C000323A1E12D4B1B6803F00203002BF0D01F
:101F3C002A4B1B6823F0F8027B685B69DB0027499E
:101F4C0013430B6015E0264B00221A60FFF76CFB65
:101F5C00386108E0FFF768FB02463B69D31A022B95
:101F6C0001D9032380E11D4B1B6803F00203002BF6
:101F7C00F0D17B681B6803F00803002B3AD07B6818
:101F8C009B69002B19D0174B01221A60FFF74CFBF1
:101F9C00386108E0FFF748FB02463B69D31A022B75
:101FAC0001D9032360E10D4B5B6A03F00203002BA4
:101FBC00F0D0012000F0CEFA1CE00A4B00221A608F
:101FCC00FFF732FB38610FE0FFF72EFB02463B694F
:101FDC00D31A022B08D9032346E100BF001002409C
:101FEC000000424280044242924B5B6A03F00203BF
:101FFC00002BE9D17B681B6803F00403002B00F075
:10200C00A6800023FB758B4BDB6903F08053002B00
:10201C000DD1884BDB69874A43F08053D361854BE4
:10202C00DB6903F08053BB60BB680123FB75824BFB
:10203C001B6803F48073002B18D17F4B1B687E4AFE
:10204C0043F480731360FFF7EFFA386108E0FFF791
:10205C00EBFA02463B69D31A642B01D9032303E143
:10206C00754B1B6803F48073002BF0D07B68DB6826
:10207C00012B06D16F4B1B6A6E4A43F001031362AE
:10208C002DE07B68DB68002B0CD16A4B1B6A694A1C
:10209C0023F001031362674B1B6A664A23F00403A7
:1020AC0013621CE07B68DB68052B0CD1614B1B6A4F
:1020BC00604A43F0040313625E4B1B6A5D4A43F0B3
:1020CC00010313620BE05B4B1B6A5A4A23F00103BA
:1020DC001362584B1B6A574A23F0040313627B6844
:1020EC00DB68002B15D0FFF79FFA38610AE0FFF789
:1020FC009BFA02463B69D31A41F28832934201D9CA
:10210C000323B1E04B4B1B6A03F00203002BEED010
:10211C0014E0FFF789FA38610AE0FFF785FA024606
:10212C003B69D31A41F28832934201D903239BE0D5
:10213C00404B1B6A03F00203002BEED1FB7D012BFD
:10214C0005D13C4BDB693B4A23F08053D3617B6860
:10215C00DB69002B00F08780364B5B6803F00C03C7
:10216C00082B61D07B68DB69022B46D1334B0022F4
:10217C001A60FFF759FA386108E0FFF755FA024682
:10218C003B69D31A022B01D903236DE0294B1B6841
:10219C0003F00073002BF0D17B681B6AB3F5803F12
:1021AC0008D1244B5B6823F400327B689B6821497F
:1021BC0013434B601F4B5B6823F474127B68196AE2
:1021CC007B685B6A0B431B4913434B601B4B01221F
:1021DC001A60FFF729FA386108E0FFF725FA024682
:1021EC003B69D31A022B01D903233DE0114B1B6829
:1021FC0003F00073002BF0D035E0104B00221A6076
:10220C00FFF712FA386108E0FFF70EFA02463B6955
:10221C00D31A022B01D9032326E0064B1B6803F0CB
:10222C000073002BF0D11EE07B68DB69012B07D11A
:10223C00012319E00010024000700040600042428F
:10224C000B4B5B68FB60FB6803F480327B681B6A9A
:10225C009A4206D1FB6803F470127B685B6A9A425F
:10226C0001D0012300E0002318461837BD4680BD7D
:10227C000010024080B584B000AF786039607B6894
:10228C00002B01D10123D0E06A4B1B6803F007033C
:10229C003A689A4210D9674B1B6823F007026549CC
:1022AC003B6813430B60634B1B6803F007033A68EE
:1022BC009A4201D00123B8E07B681B6803F002034B
:1022CC00002B20D07B681B6803F00403002B05D087
:1022DC00594B5B68584A43F4E06353607B681B6856
:1022EC0003F00803002B05D0534B5B68524A43F4B0
:1022FC0060535360504B5B6823F0F0027B689B6823
:10230C004D4913434B607B681B6803F00103002BA2
:10231C0040D07B685B68012B07D1474B1B6803F4EB
:10232C000033002B15D101237FE07B685B68022B07
:10233C0007D1414B1B6803F00073002B09D101231B
:10234C0073E03D4B1B6803F00203002B01D101230A
:10235C006BE0394B5B6823F003027B685B683649A2
:10236C0013434B60FFF760F9F8600AE0FFF75CF984
:10237C000246FB68D31A41F28832934201D90323F7
:10238C0053E02D4B5B6803F00C027B685B689B0091
:10239C009A42EBD1274B1B6803F007033A689A4229
:1023AC0010D2244B1B6823F0070222493B681343CD
:1023BC000B60204B1B6803F007033A689A4201D06C
:1023CC00012332E07B681B6803F00403002B08D068
:1023DC00194B5B6823F4E0627B68DB681649134396
:1023EC004B607B681B6803F00803002B09D0124B71
:1023FC005B6823F460527B681B69DB000E49134356
:10240C004B6000F021F802460B4B5B681B0903F094
:10241C000F030A49CB5C22FA03F3094A1360094BF8
:10242C001B681846FFF7BEF8002318461037BD4648
:10243C0080BD00BF00200240001002400C3F00088D
:10244C00000000200400002080B487B000AF0023FF
:10245C00FB600023BB6000237B6100237B600023B7
:10246C003B611E4B5B68FB60FB6803F00C03042BA9
:10247C0002D0082B03D027E0194B3B6127E0FB6807
:10248C009B0C03F00F03174AD35C7B60FB6803F4CF
:10249C008033002B10D0114B5B685B0C03F00103F5
:1024AC00114AD35CBB607B680D4A03FB02F2BB682C
:1024BC00B2FBF3F37B6104E07B680C4A02FB03F391
:1024CC007B617B693B6102E0054B3B6100BF3B6973
:1024DC0018461C37BD4680BC704700BF0010024038
:1024EC0000127A00243F0008343F000800093D0028
:1024FC0080B400AF024B1B681846BD4680BC7047C9
:10250C000000002080B500AFFFF7F2FF0246054B3C
:10251C005B681B0A03F007030349CB5C22FA03F345
:10252C00184680BD001002401C3F000880B500AF6B
:10253C00FFF7DEFF0246054B5B68DB0A03F007037F
:10254C000349CB5C22FA03F3184680BD001002400D
:10255C001C3F000880B485B000AF78600A4B1B6844
:10256C000A4AA2FB03235B0A7A6802FB03F3FB60B3
:10257C0000BFFB685A1EFA60002BF9D100BF00BFE8
:10258C001437BD4680BC704700000020D34D62104C
:10259C0080B582B000AF78607B68002B01D101233D
:1025AC0042E07B6893F84130DBB2002B06D17B68AC
:1025BC00002283F840207868FEF75AFE7B682422BC
:1025CC0083F841207B681B68DA687B681B6822F4FF
:1025DC000052DA60786800F063FD7B681B681A694A
:1025EC007B681B6822F490421A617B681B685A69ED
:1025FC007B681B6822F02A025A617B681B68DA68C8
:10260C007B681B6842F40052DA607B6800225A64D3
:10261C007B68202283F841207B68202283F84220AB
:10262C007B6800225A63002318460837BD4680BDDC
:10263C0080B58AB002AFF860B9603B601346FB808E
:10264C0000237B61FB6893F84130DBB2202B75D102
:10265C00BB68002B02D0FB88002B01D101236EE05C
:10266C00FB6800225A64FB68212283F84120FEF7A4
:10267C00DBFF7861FB68FA889A84FB68FA88DA8455
:10268C00FB689B68B3F5805F08D1FB681B69002B66
:10269C0004D10023FB61BB68BB6103E0BB68FB6139
:1026AC000023BB612EE03B6800937B6900228021F4
:1026BC00F86800F001FB0346002B05D0FB682022D4
:1026CC0083F8412003233AE0FB69002B0BD1BB6953
:1026DC001B881A46FB681B68C2F308025A60BB6968
:1026EC000233BB6107E0FB691A78FB681B685A6010
:1026FC00FB690133FB61FB68DB8C9BB2013B9AB23B
:10270C00FB68DA84FB68DB8C9BB2002BCBD13B687B
:10271C0000937B6900224021F86800F0CDFA034653
:10272C00002B05D0FB68202283F84120032306E010
:10273C00FB68202283F84120002300E00223184686
:10274C002037BD4680BD000080B5BAB000AF7860C0
:10275C007B681B681B68C7F8E4307B681B68DB6808
:10276C00C7F8E0307B681B685B69C7F8DC30002376
:10277C00C7F8D8300023C7F8D430D7F8E43003F0CA
:10278C000F03C7F8D830D7F8D830002B0FD1D7F8B3
:10279C00E43003F02003002B09D0D7F8E03003F02D
:1027AC002003002B03D0786800F0BCFB5BE2D7F869
:1027BC00D830002B00F0DE80D7F8DC3003F00103BA
:1027CC00002B06D1D7F8E03003F49073002B00F007
:1027DC00D180D7F8E43003F00103002B0BD0D7F8ED
:1027EC00E03003F48073002B05D07B685B6C43F006
:1027FC0001027B685A64D7F8E43003F00403002B21
:10280C000BD0D7F8DC3003F00103002B05D07B682C
:10281C005B6C43F002027B685A64D7F8E43003F037
:10282C000203002B0BD0D7F8DC3003F00103002B94
:10283C0005D07B685B6C43F004027B685A64D7F864
:10284C00E43003F00803002B11D0D7F8E03003F08C
:10285C002003002B05D1D7F8DC3003F00103002B4B
:10286C0005D07B685B6C43F008027B685A647B681C
:10287C005B6C002B00F0F281D7F8E43003F02003FE
:10288C00002B08D0D7F8E03003F02003002B02D047
:10289C00786800F047FB7B681B685B6903F04003BA
:1028AC00002B14BF01230023DBB2C7F8D4307B68A4
:1028BC005B6C03F00803002B03D1D7F8D430002B4A
:1028CC004FD0786800F051FA7B681B685B6903F0A5
:1028DC004003002B41D07B681B681433C7F89C3035
:1028EC00D7F89C3053E8003FC7F89830D7F89830A9
:1028FC0023F04003C7F8D0307B681B681433D7F83B
:10290C00D020C7F8A820C7F8A430D7F8A410D7F85F
:10291C00A82041E80023C7F8A030D7F8A030002B3E
:10292C00D9D17B68DB6B002B13D07B68DB6B7E4AC9
:10293C005A637B68DB6B1846FEF7ECFF0346002BF3
:10294C0016D07B68DB6B5B6B7A68D26B1046984752
:10295C000EE0786800F09CF90AE0786800F098F9CD
:10296C0006E0786800F094F97B6800225A6475E1FF
:10297C0000BF73E17B681B6B012B40F04F81D7F8D4
:10298C00E43003F01003002B00F04881D7F8E0305E
:10299C0003F01003002B00F041810023BB607B6827
:1029AC001B681B68BB607B681B685B68BB60BB6893
:1029BC007B681B685B6903F04003002B00F0B6805A
:1029CC007B68DB6B1B685B68A7F8BE30B7F8BE3062
:1029DC00002B00F045817B689B8DB7F8BE209A4296
:1029EC0080F03E817B68B7F8BE20DA857B68DB6BB4
:1029FC009B69202B00F088807B681B680C33C7F820
:102A0C008830D7F8883053E8003FC7F88430D7F8BF
:102A1C00843023F48073C7F8B8307B681B680C33A0
:102A2C00D7F8B820C7F89420C7F89030D7F8901092
:102A3C00D7F8942041E80023C7F88C30D7F88C30B5
:102A4C00002BD9D17B681B6814337B677B6F53E8F1
:102A5C00003F3B673B6F23F00103C7F8B4307B6842
:102A6C001B681433D7F8B420C7F88020FB67F96FC4
:102A7C00D7F8802041E80023BB67BB6F002BE1D166
:102A8C007B681B6814333B663B6E53E8003FFB6569
:102A9C00FB6D23F04003C7F8B0307B681B68143320
:102AAC00D7F8B020FA66BB66B96EFA6E41E800231F
:102ABC007B667B6E002BE3D17B68202283F842205F
:102ACC007B6800221A637B681B680C33FB64FB6C0D
:102ADC0053E8003FBB64BB6C23F01003C7F8AC3069
:102AEC007B681B680C33D7F8AC20BA657B65796DB5
:102AFC00BA6D41E800233B653B6D002BE3D17B684D
:102B0C00DB6B1846FEF7CBFE7B6802225A637B68B0
:102B1C009A8D7B68DB8D9BB2D31A9BB21946786871
:102B2C0000F0BFF89CE000BF3B2E00087B689A8D3C
:102B3C007B68DB8D9BB2D31AA7F8CE307B68DB8D1C
:102B4C009BB2002B00F08E80B7F8CE30002B00F03B
:102B5C0089807B681B680C33BB63BB6B53E8003FFD
:102B6C007B637B6B23F49073C7F8C8307B681B685E
:102B7C000C33D7F8C8207A643B64396C7A6C41E822
:102B8C000023FB63FB6B002BE3D17B681B681433C6
:102B9C007B627B6A53E8003F3B623B6A23F0010394
:102BAC00C7F8C4307B681B681433D7F8C4203A6369
:102BBC00FB62F96A3A6B41E80023BB62BB6A002BEB
:102BCC00E3D17B68202283F842207B6800221A63C1
:102BDC007B681B680C333B613B6953E8003FFB602F
:102BEC00FB6823F01003C7F8C0307B681B680C33FC
:102BFC00D7F8C020FA61BB61B969FA6941E80023D2
:102C0C007B617B69002BE3D17B6802225A63B7F8A6
:102C1C00CE301946786800F044F823E0D7F8E43059
:102C2C0003F08003002B09D0D7F8E03003F08003C9
:102C3C00002B03D0786800F00EF914E0D7F8E430DC
:102C4C0003F04003002B0ED0D7F8E03003F0400324
:102C5C00002B08D0786800F04DF904E000BF02E0CA
:102C6C0000BF00E000BFE837BD4680BD80B483B034
:102C7C0000AF786000BF0C37BD4680BC704780B495
:102C8C0083B000AF786000BF0C37BD4680BC704786
:102C9C0080B483B000AF786000BF0C37BD4680BCF9
:102CAC00704780B483B000AF78600B467B8000BF68
:102CBC000C37BD4680BC704780B586B000AFF8605D
:102CCC00B9603B601346FB713BE03B6AB3F1FF3FDD
:102CDC0037D0FEF7A9FC02463B68D31A3A6A9A42EF
:102CEC0002D33B6A002B01D103233AE0FB681B683B
:102CFC00DB6803F00403002B23D0BB68802B20D0AF
:102D0C00BB68402B1DD0FB681B681B6803F00803D5
:102D1C00082B16D100237B61FB681B681B687B6149
:102D2C00FB681B685B687B617B69F86800F01DF8C9
:102D3C00FB6808225A64FB68002283F840200123B8
:102D4C000FE0FB681B681A68BB681340BA689A42AC
:102D5C000CBF01230023DBB21A46FB799A42B4D094
:102D6C00002318461837BD4680BD80B495B000AF1F
:102D7C0078607B681B680C337B637B6B53E8003F8C
:102D8C003B633B6B23F49073FB647B681B680C33D5
:102D9C00FA6C3A64FB63F96B3A6C41E80023BB6351
:102DAC00BB6B002BE5D17B681B6814333B623B6A21
:102DBC0053E8003FFB61FB6923F00103BB647B68B4
:102DCC001B681433BA6CFA62BB62B96AFA6A41E8DE
:102DDC0000237B627B6A002BE5D17B681B6B012B8C
:102DEC0019D17B681B680C33FB60FB6853E8003F10
:102DFC00BB60BB6823F010037B647B681B680C33DF
:102E0C007A6CBA617B617969BA6941E800233B61EC
:102E1C003B69002BE5D17B68202283F842207B683C
:102E2C0000221A6300BF5437BD4680BC704780B582
:102E3C0084B000AF78607B685B6AFB60FB68002243
:102E4C00DA85FB680022DA84F868FFF721FF00BFFF
:102E5C001037BD4680BD80B485B000AF78607B680C
:102E6C0093F84130DBB2212B3ED17B689B68B3F5E4
:102E7C00805F14D17B681B69002B10D17B681B6AA7
:102E8C00FB60FB681B881A467B681B68C2F3080250
:102E9C005A607B681B6A9A1C7B681A6208E07B6824
:102EAC001B6A591C7A6811621A787B681B685A6015
:102EBC007B68DB8C9BB2013B9BB27A681946D18450
:102ECC00002B0FD17B681B68DA687B681B6822F0CB
:102EDC008002DA607B681B68DA687B681B6842F0EA
:102EEC004002DA60002300E0022318461437BD4686
:102EFC0080BC704780B582B000AF78607B681B687F
:102F0C00DA687B681B6822F04002DA607B6820225A
:102F1C0083F841207868FFF7A9FE0023184608378C
:102F2C00BD4680BD80B58CB000AF78607B6893F8EF
:102F3C004230DBB2222B40F0AE807B689B68B3F54D
:102F4C00805F17D17B681B69002B13D10023FB62B8
:102F5C007B689B6ABB627B681B685B689BB2C3F334
:102F6C0008039AB2BB6A1A807B689B6A9A1C7B68BE
:102F7C009A6226E07B689B6AFB620023BB627B68DB
:102F8C009B68B3F5805F07D07B689B68002B0AD1E8
:102F9C007B681B69002B06D17B681B685B68DAB207
:102FAC00FB6A1A7008E07B681B685B68DBB203F095
:102FBC007F03DAB2FB6A1A707B689B6A5A1C7B68C7
:102FCC009A627B68DB8D9BB2013B9BB27A68194697
:102FDC00D185002B5DD17B681B68DA687B681B6828
:102FEC0022F02002DA607B681B68DA687B681B6859
:102FFC0022F48072DA607B681B685A697B681B68F4
:10300C0022F001025A617B68202283F842207B68FF
:10301C0000225A637B681B6B012B35D17B68002225
:10302C001A637B681B680C337B617B6953E8003F38
:10303C003B613B6923F010037B627B681B680C339C
:10304C007A6A3A62FB61F9693A6A41E80023BB612A
:10305C00BB69002BE5D17B681B681B6803F0100370
:10306C00102B0AD10023FB607B681B681B68FB607C
:10307C007B681B685B68FB60FB687B689B8D1946F3
:10308C007868FFF70EFE02E07868FFF7F8FD002382
:10309C0002E0002300E0022318463037BD4680BD15
:1030AC0080B584B000AF78607B681B681B6923F423
:1030BC0040517B68DA687B681B680A431A617B683D
:1030CC009A687B681B691A437B685B691343BB6016
:1030DC007B681B68DB6823F4B05323F00C037A681D
:1030EC001268B9680B43D3607B681B685B6923F477
:1030FC0040717B689A697B681B680A435A617B68DC
:10310C001B682C4A934203D1FFF710FAF86002E0D7
:10311C00FFF7F8F9F860FA6813469B0013449A001D
:10312C001A447B685B689B00B2FBF3F3224AA2FB58
:10313C0003235B091901FA6813469B0013449A0098
:10314C001A447B685B689B00B2FBF3F21A4BA3FB3F
:10315C0002035B09642000FB03F3D31A1B01323317
:10316C00154AA2FB03235B0903F0F0031944FA6828
:10317C0013469B0013449A001A447B685B689B00BF
:10318C00B2FBF3F20C4BA3FB02035B09642000FBC4
:10319C0003F3D31A1B013233074AA2FB03235B0947
:1031AC0003F00F027B681B680A449A6000BF10375B
:1031BC00BD4680BD003801401F85EB510EB46FF049
:1031CC00004110B500249DB01FAB029006900791F2
:1031DC0004910948094953F8042B0591006802A988
:1031EC0001931B9400F092F9029B1C701DB0BDE87A
:1031FC00104003B0704700BF0C0000200802FFFF16
:10320C0003460244934200D1704703F8011BF9E7CF
:10321C00014B1868704700BF0C00002070B50026E9
:10322C000C4D0D4C641BA410A64209D100F076FC89
:10323C0000260A4D0A4C641BA410A64205D170BD91
:10324C0055F8043B98470136EEE755F8043B984790
:10325C000136F2E7743F0008743F0008743F000821
:10326C00783F00087047704738B50546002940D0B4
:10327C0051F8043C0C1F002BB8BFE41800F0DEF82A
:10328C001C4A136833B9636014602846BDE83840A3
:10329C0000F0DAB8A34208D9206821188B4201BF8C
:1032AC0019685B6809182160EDE71A465B680BB179
:1032BC00A342FAD911685018A0420BD120680144DE
:1032CC00501883421160E0D118685B6808441060A4
:1032DC005360DAE702D90C232B60D6E7206821185B
:1032EC008B4201BF19685B680918216063605460E8
:1032FC00CBE738BDE003002070B50F4E0C463168AB
:10330C00054611B900F0A8FB30602146284600F0B4
:10331C00A3FB431C03D14FF0FF34204670BDC41CEB
:10332C0024F00304A042F8D0211A284600F094FBA4
:10333C000130F2D1EFE700BFDC0300202DE9F843A8
:10334C00CD1C25F0030508350C2D38BF0C25002DA0
:10335C00064601DBA94204D90C2333600020BDE8EA
:10336C00F883DFF8D48000F069F8D8F800301C46F8
:10337C0044BB29463046FFF7BFFF431C044658D1D7
:10338C00D8F800402746002F43D1002C4BD023689F
:10339C003946304604EB030900F05EFB814542D10F
:1033AC00216830466D1A2946FFF7A6FF01303AD046
:1033BC0023682B442360D8F800305A6862BBC8F8E5
:1033CC0000700FE02268521B20D40B2A17D9611908
:1033DC00A342256018BF5960636808BFC8F8001085
:1033EC0062514B60304600F02FF804F10B00231DA6
:1033FC0020F00700C21A1CBF1B1AA350AFE762686B
:10340C00A3420CBFC8F800205A60EBE7234664685F
:10341C00AEE73C467F68B6E71A465B68A342FBD131
:10342C0000235360DEE70C233046336000F00CF8C9
:10343C0094E70560D6E700BFE00300200148FFF7E2
:10344C0011BF00BFD80300200148FFF70CBF00BF1D
:10345C00D80300202DE9F0471F468E688246BE42F5
:10346C000C4690460B682DD8B1F90C2012F4906FD5
:10347C0026D06569096905EB4505A3EB010905EB48
:10348C00D5757B1C4B446D109D4238BF1D465305B2
:10349C0027D52946FFF752FF064660B34A462169F5
:1034AC0000F0F8FAA38923F4906343F08003A3811E
:1034BC0026614E4426603E466561A5EB0905A56074
:1034CC00BE4200D93E4632464146206800F0AAFA78
:1034DC000020A3689B1BA360236833442360BDE8D2
:1034EC00F0872A4600F0E4FA06460028E0D1504660
:1034FC002169FFF7B9FE0C23CAF80030A3894FF0FD
:10350C00FF3043F04003A381E9E700002DE9F04FC1
:10351C0098468B8907461B060D4614469DB010D560
:10352C000B6973B94021FFF709FF2860286130B996
:10353C000C233B604FF0FF301DB0BDE8F08F4023F3
:10354C006B610023099320238DF8293030234FF031
:10355C000109CDF80C80DFF898818DF82A302346CC
:10356C009A4613F8012B0AB1252AF9D1BAEB040BB0
:10357C000BD05B46224629463846FFF76BFF0130DD
:10358C0000F0A780099A5A4409929AF80030002B4F
:10359C0000F09F8000234FF0FF32CDE905230AF1A4
:1035AC00010A049307938DF853301A93544605225D
:1035BC0014F8011B4E4800F05FFA049AD8B9D006F3
:1035CC0044BF20238DF85330110744BF2B238DF8B3
:1035DC0053309AF800302A2B15D0544600204FF067
:1035EC000A0C079A214611F8013B303B092B4BD9A9
:1035FC00B0B1079214E0A0EB080309FA03F31343EC
:10360C00A2460493D2E7039B191D1B680391002B60
:10361C00BBBF5B4242F0020207930793B8BF049210
:10362C0023782E2B0AD163782A2B32D1039B0234B8
:10363C001A1D1B68039243EAE3730593DFF8B4A0E9
:10364C0003225046217800F017FA38B14022049B2F
:10365C00A0EB0A00824013430134049314F8011BBD
:10366C00062225488DF8281000F006FA002836D0DE
:10367C00224B1BBB039B073323F007030833039335
:10368C00099B334409936AE70C4601200CFB023278
:10369C00A8E700234FF00A0C194601340593204685
:1036AC0010F8012B303A092A03D9002BC6D005910A
:1036BC00C4E7044601230CFB0121F0E703AB0093A4
:1036CC002A4638460E4B04A9AFF30080421C06462E
:1036DC00D6D1AB895B063FF52DAF09982CE703AB30
:1036EC0000932A463846064B04A900F07DF8EDE716
:1036FC00363F00083C3F0008403F00080000000037
:10370C00613400082DE9F047164698468A680B6923
:10371C0007469342B8BF1346336091F843200C46DA
:10372C00DDF820900AB1013333602368990642BF5B
:10373C00336802333360256815F0060506D104F1B1
:10374C00190AE36832689B1AAB422BDC94F84330BD
:10375C002268003B18BF0123920630D441463846FC
:10376C0004F14302C847013023D02368226903F0D7
:10377C000603042B14BF002533684FF0000608BF66
:10378C00E56804F11A0408BFED1A54F8123C08BF9E
:10379C0025EAE5759342C4BF9B1AED18B5421AD1C0
:1037AC00002008E00123524641463846C847013004
:1037BC0003D14FF0FF30BDE8F0870135C1E7302071
:1037CC00E11881F843005A1C94F845102244023346
:1037DC0082F84310C2E70123224641463846C847C7
:1037EC000130E6D00136D9E72DE9FF470F7E91462F
:1037FC00782F80460C469A460C9E01F1430207D85E
:10380C00622F0AD8002F00F0D180582F00F0B8801A
:10381C0004F1420684F842703AE0A7F16303152BD9
:10382C00F6D801A151F823F08D380008A138000812
:10383C001D3800081D3800081D3800081D38000808
:10384C00A13800081D3800081D3800081D38000874
:10385C001D3800089F390008CB380008593900087A
:10386C001D3800081D380008C13900081D38000833
:10387C00CB3800081D3800081D38000861390008D5
:10388C0033681A1D1B68326004F1420684F842301A
:10389C0001239CE033682068191D3160060601D5B0
:1038AC001D6803E04506FBD5B3F90050002D03DA83
:1038BC002D236D4284F843300A23584811E02168C7
:1038CC003368080653F8045B02D4490648BFADB20E
:1038DC006F2F336014BF0A2308235048002184F84B
:1038EC0043106668002EA66005DB21682E4321F08C
:1038FC00040121604BD01646B5FBF3F103FB1157C5
:10390C00C75D06F8017D2F46BB420D46F4D9082B46
:10391C000BD12368DF0708D5236961689942DEBFA4
:10392C00302306F8013C06F1FF36921B22614B4610
:10393C0021464046CDF800A003AAFFF7E3FE013074
:10394C004AD14FF0FF3004B0BDE8F087236843F054
:10395C00200323607827324884F845702368316847
:10396C001F0651F8045B02D45F0648BFADB231604C
:10397C00D90744BF43F0200323601DB11023ADE7EA
:10398C002648E9E7236823F020032360F6E7164670
:10399C00BDE733682568181D616930602E061B6809
:1039AC0001D5196002E06806FBD519800023164684
:1039BC002361BCE7336800211A1D32601E686268FF
:1039CC00304600F059F808B1801B606063682361D1
:1039DC00002384F84330AAE732464946404623691F
:1039EC00D0470130ADD023689B0713D4E068039B0C
:1039FC009842B8BF1846A6E70123324649464046CE
:103A0C00D04701309DD00135E36803995B1AAB4276
:103A1C00F2DCEBE7002504F11906F5E7473F000857
:103A2C00583F0008884210B501EB020402D98442C9
:103A3C00234607D8431EA14208D011F8012B03F8E6
:103A4C00012FF8E7014602448A4200D110BD13F859
:103A5C00014D02F8014DF7E738B50023054D04463A
:103A6C0008462B60FDF726FD431C02D12B6803B1E1
:103A7C00236038BDD4030020034610B5C9B20244FC
:103A8C009342184601D1002003E0047801338C42A4
:103A9C00F6D110BD0A44914200F1FF3300D17047BA
:103AAC0010B511F8014B914203F8014FF9D110BD3B
:103ABC002DE9F041074614460D4621B91146BDE8E3
:103ACC00F041FFF73BBC2AB9FFF7CEFB2546284651
:103ADC00BDE8F08100F01AF88442064602D8B4EB37
:103AEC00500FF4D821463846FFF728FC804608B919
:103AFC004546ECE7B4422246294628BF3246FFF73A
:103B0C00C9FF29463846FFF7AFFBF1E751F8043CF3
:103B1C00181F002BBCBF0B58C0187047F8B500BF5E
:103B2C00F8BC08BC9E467047F8B500BFF8BC08BC92
:043B3C009E467047EA
:103B4000524553455454494E472E000041542B5280
:103B500053540D0A000000002E00000041540D0ACD
:103B60000000000041540D0D0A0D0A4F4B0D0A00D4
:103B700041542D2D2D2D3E4F4B0A0A0041542B430D
:103B8000574D4F44453D310D0A00000041542B4331
:103B9000574D4F44453D310D0D0A0D0A4F4B0D0A4F
:103BA000000000004357204D4F44452D2D2D2D3E44
:103BB000310A0A00636F6E6E656374696E672E2E3C
:103BC0002E20746F207468652070726F766964654A
:103BD000642041500A00000041542B43574A415091
:103BE0003D222573222C222573220D0A000000009D
:103BF0005749464920474F542049500D0A0D0A4F56
:103C00004B0D0A00436F6E6E656374656420746FBC
:103C10002C222573220A0A0041542B434946535251
:103C20000D0A000043494653523A53544149502C1F
:103C300022000000220000004F4B0D0A000000008F
:103C4000495020414444523A2025730A0A0000009A
:103C50004E6F7720436F6E6E65637420746F2074AF
:103C60006865204950204144524553530A0A0000D8
:103C70004765742053656E640A00000041542B436D
:103C8000495053544152543D22544350222C222532
:103C900073222C25640D0A004745543A20436F6E69
:103CA0006E656374696F6E206661696C6564210A74
:103CB0000000000047455420257320485454502FDD
:103CC000312E300D0A486F73743A2025730D0A4364
:103CD0006F6E6E656374696F6E3A20636C6F7365A7
:103CE0000D0A0D0A0000000041542B434950534572
:103CF0004E443D25640D0A003E0000004745543AFD
:103D00002053656E642070726F6D70742074696DDD
:103D1000656F7574210A000053454E44204F4B00D7
:103D20004745543A2053656E64206661696C65644A
:103D3000210A00002B4950442C0000004745542024
:103D4000526573706F6E73653A0A00000A000000D6
:103D50004745543A204E6F20726573706F6E7365DD
:103D6000207265636569766564202874696D656F86
:103D70007574292E0A00000041542B434950434CCE
:103D80004F53450D0A000000506F737453656E6405
:103D90000A000000504F53543A20436F6E6E656323
:103DA00074696F6E206661696C6564210A000000A9
:103DB000504F535420257320485454502F312E31E6
:103DC0000D0A486F73743A2025730D0A436F6E6EA7
:103DD000656374696F6E3A20636C6F73650D0A0DCD
:103DE0000A000000504F53543A2053656E6420700F
:103DF000726F6D70742074696D656F7574210A003F
:103E0000504F53543A2053656E64206661696C6567
:103E100064210A00504F535420526573706F6E73C3
:103E2000653A0A00504F53543A204E6F2072657322
:103E3000706F6E73652072656365697665642028AE
:103E400074696D656F7574292E0A00004F4B000070
:103E5000436865636B0D0A0064656164343368759B
:103E60006E746572000000004C696768746E696E5C
:103E7000670000002F6170692F5265636569766580
:103E80003F696E7075743D35000000003139322E87
:103E90003136382E312E38002F6170692F726563EC
:103EA000656976653F53656E6465723D39383933AF
:103EB0003333333333333333264D6573736167657F
:103EC0003D4B686F6F6269265369676E616C51750F
:103ED000616C6974793D3130300000007B2253659C
:103EE0006E646572223A20222B39383931323334EC
:103EF0003536373839222C224D6573736167652258
:103F00003A202254657374227D00000000000000F6
:103F10000000000001020304060708090000000079
:103F20000102030402030405060708090A0B0C0D2D
:103F30000E0F10100102232D302B2000686C4C0056
:103F40006566674546470030313233343536373899
:103F500039414243444546003031323334353637F7
:0C3F60003839616263646566000000008F
:083F6C00E0C1FF7F010000002D
:043F7400310100080F
:043F78000D0100082F
:103F7C0000127A0010000000010000001000002068
:103F8C00000000009C020020040300206C030020B1
:103F9C000000000000000000000000000000000015
:103FAC000000000000000000000000000000000005
:103FBC0000000000000000000000000000000000F5
:0C3FCC00000000000000000000000000E9
:0400000508001539A1
:00000001FF
